{
  "_format": "hh-sol-artifact-1",
  "contractName": "TicketAccessNFT",
  "sourceName": "contracts/TicketAccessNFT.sol",
  "abi": [
    {
      "inputs": [],
      "stateMutability": "nonpayable",
      "type": "constructor"
    },
    {
      "inputs": [
        {
          "internalType": "address",
          "name": "sender",
          "type": "address"
        },
        {
          "internalType": "uint256",
          "name": "tokenId",
          "type": "uint256"
        },
        {
          "internalType": "address",
          "name": "owner",
          "type": "address"
        }
      ],
      "name": "ERC721IncorrectOwner",
      "type": "error"
    },
    {
      "inputs": [
        {
          "internalType": "address",
          "name": "operator",
          "type": "address"
        },
        {
          "internalType": "uint256",
          "name": "tokenId",
          "type": "uint256"
        }
      ],
      "name": "ERC721InsufficientApproval",
      "type": "error"
    },
    {
      "inputs": [
        {
          "internalType": "address",
          "name": "approver",
          "type": "address"
        }
      ],
      "name": "ERC721InvalidApprover",
      "type": "error"
    },
    {
      "inputs": [
        {
          "internalType": "address",
          "name": "operator",
          "type": "address"
        }
      ],
      "name": "ERC721InvalidOperator",
      "type": "error"
    },
    {
      "inputs": [
        {
          "internalType": "address",
          "name": "owner",
          "type": "address"
        }
      ],
      "name": "ERC721InvalidOwner",
      "type": "error"
    },
    {
      "inputs": [
        {
          "internalType": "address",
          "name": "receiver",
          "type": "address"
        }
      ],
      "name": "ERC721InvalidReceiver",
      "type": "error"
    },
    {
      "inputs": [
        {
          "internalType": "address",
          "name": "sender",
          "type": "address"
        }
      ],
      "name": "ERC721InvalidSender",
      "type": "error"
    },
    {
      "inputs": [
        {
          "internalType": "uint256",
          "name": "tokenId",
          "type": "uint256"
        }
      ],
      "name": "ERC721NonexistentToken",
      "type": "error"
    },
    {
      "inputs": [
        {
          "internalType": "address",
          "name": "owner",
          "type": "address"
        }
      ],
      "name": "OwnableInvalidOwner",
      "type": "error"
    },
    {
      "inputs": [
        {
          "internalType": "address",
          "name": "account",
          "type": "address"
        }
      ],
      "name": "OwnableUnauthorizedAccount",
      "type": "error"
    },
    {
      "anonymous": false,
      "inputs": [
        {
          "indexed": true,
          "internalType": "address",
          "name": "owner",
          "type": "address"
        },
        {
          "indexed": true,
          "internalType": "address",
          "name": "approved",
          "type": "address"
        },
        {
          "indexed": true,
          "internalType": "uint256",
          "name": "tokenId",
          "type": "uint256"
        }
      ],
      "name": "Approval",
      "type": "event"
    },
    {
      "anonymous": false,
      "inputs": [
        {
          "indexed": true,
          "internalType": "address",
          "name": "owner",
          "type": "address"
        },
        {
          "indexed": true,
          "internalType": "address",
          "name": "operator",
          "type": "address"
        },
        {
          "indexed": false,
          "internalType": "bool",
          "name": "approved",
          "type": "bool"
        }
      ],
      "name": "ApprovalForAll",
      "type": "event"
    },
    {
      "anonymous": false,
      "inputs": [
        {
          "indexed": true,
          "internalType": "address",
          "name": "previousOwner",
          "type": "address"
        },
        {
          "indexed": true,
          "internalType": "address",
          "name": "newOwner",
          "type": "address"
        }
      ],
      "name": "OwnershipTransferred",
      "type": "event"
    },
    {
      "anonymous": false,
      "inputs": [
        {
          "indexed": true,
          "internalType": "address",
          "name": "from",
          "type": "address"
        },
        {
          "indexed": true,
          "internalType": "address",
          "name": "to",
          "type": "address"
        },
        {
          "indexed": true,
          "internalType": "uint256",
          "name": "tokenId",
          "type": "uint256"
        }
      ],
      "name": "Transfer",
      "type": "event"
    },
    {
      "inputs": [
        {
          "internalType": "address",
          "name": "to",
          "type": "address"
        },
        {
          "internalType": "uint256",
          "name": "tokenId",
          "type": "uint256"
        }
      ],
      "name": "approve",
      "outputs": [],
      "stateMutability": "nonpayable",
      "type": "function"
    },
    {
      "inputs": [
        {
          "internalType": "address",
          "name": "owner",
          "type": "address"
        }
      ],
      "name": "balanceOf",
      "outputs": [
        {
          "internalType": "uint256",
          "name": "",
          "type": "uint256"
        }
      ],
      "stateMutability": "view",
      "type": "function"
    },
    {
      "inputs": [
        {
          "internalType": "string",
          "name": "eventName",
          "type": "string"
        },
        {
          "internalType": "uint256",
          "name": "eventDate",
          "type": "uint256"
        }
      ],
      "name": "bookTicket",
      "outputs": [],
      "stateMutability": "nonpayable",
      "type": "function"
    },
    {
      "inputs": [
        {
          "internalType": "uint256",
          "name": "tokenId",
          "type": "uint256"
        }
      ],
      "name": "getApproved",
      "outputs": [
        {
          "internalType": "address",
          "name": "",
          "type": "address"
        }
      ],
      "stateMutability": "view",
      "type": "function"
    },
    {
      "inputs": [
        {
          "internalType": "address",
          "name": "user",
          "type": "address"
        }
      ],
      "name": "getTickets",
      "outputs": [
        {
          "components": [
            {
              "internalType": "uint256",
              "name": "id",
              "type": "uint256"
            },
            {
              "internalType": "string",
              "name": "eventName",
              "type": "string"
            },
            {
              "internalType": "uint256",
              "name": "eventDate",
              "type": "uint256"
            },
            {
              "internalType": "address",
              "name": "attendee",
              "type": "address"
            }
          ],
          "internalType": "struct TicketAccessNFT.Ticket[]",
          "name": "",
          "type": "tuple[]"
        }
      ],
      "stateMutability": "view",
      "type": "function"
    },
    {
      "inputs": [
        {
          "internalType": "address",
          "name": "user",
          "type": "address"
        }
      ],
      "name": "hasAccess",
      "outputs": [
        {
          "internalType": "bool",
          "name": "",
          "type": "bool"
        }
      ],
      "stateMutability": "view",
      "type": "function"
    },
    {
      "inputs": [
        {
          "internalType": "address",
          "name": "owner",
          "type": "address"
        },
        {
          "internalType": "address",
          "name": "operator",
          "type": "address"
        }
      ],
      "name": "isApprovedForAll",
      "outputs": [
        {
          "internalType": "bool",
          "name": "",
          "type": "bool"
        }
      ],
      "stateMutability": "view",
      "type": "function"
    },
    {
      "inputs": [
        {
          "internalType": "address",
          "name": "to",
          "type": "address"
        }
      ],
      "name": "mintNFT",
      "outputs": [],
      "stateMutability": "nonpayable",
      "type": "function"
    },
    {
      "inputs": [],
      "name": "name",
      "outputs": [
        {
          "internalType": "string",
          "name": "",
          "type": "string"
        }
      ],
      "stateMutability": "view",
      "type": "function"
    },
    {
      "inputs": [],
      "name": "nextTokenId",
      "outputs": [
        {
          "internalType": "uint256",
          "name": "",
          "type": "uint256"
        }
      ],
      "stateMutability": "view",
      "type": "function"
    },
    {
      "inputs": [],
      "name": "owner",
      "outputs": [
        {
          "internalType": "address",
          "name": "",
          "type": "address"
        }
      ],
      "stateMutability": "view",
      "type": "function"
    },
    {
      "inputs": [
        {
          "internalType": "uint256",
          "name": "tokenId",
          "type": "uint256"
        }
      ],
      "name": "ownerOf",
      "outputs": [
        {
          "internalType": "address",
          "name": "",
          "type": "address"
        }
      ],
      "stateMutability": "view",
      "type": "function"
    },
    {
      "inputs": [],
      "name": "renounceOwnership",
      "outputs": [],
      "stateMutability": "nonpayable",
      "type": "function"
    },
    {
      "inputs": [
        {
          "internalType": "address",
          "name": "from",
          "type": "address"
        },
        {
          "internalType": "address",
          "name": "to",
          "type": "address"
        },
        {
          "internalType": "uint256",
          "name": "tokenId",
          "type": "uint256"
        }
      ],
      "name": "safeTransferFrom",
      "outputs": [],
      "stateMutability": "nonpayable",
      "type": "function"
    },
    {
      "inputs": [
        {
          "internalType": "address",
          "name": "from",
          "type": "address"
        },
        {
          "internalType": "address",
          "name": "to",
          "type": "address"
        },
        {
          "internalType": "uint256",
          "name": "tokenId",
          "type": "uint256"
        },
        {
          "internalType": "bytes",
          "name": "data",
          "type": "bytes"
        }
      ],
      "name": "safeTransferFrom",
      "outputs": [],
      "stateMutability": "nonpayable",
      "type": "function"
    },
    {
      "inputs": [
        {
          "internalType": "address",
          "name": "operator",
          "type": "address"
        },
        {
          "internalType": "bool",
          "name": "approved",
          "type": "bool"
        }
      ],
      "name": "setApprovalForAll",
      "outputs": [],
      "stateMutability": "nonpayable",
      "type": "function"
    },
    {
      "inputs": [
        {
          "internalType": "bytes4",
          "name": "interfaceId",
          "type": "bytes4"
        }
      ],
      "name": "supportsInterface",
      "outputs": [
        {
          "internalType": "bool",
          "name": "",
          "type": "bool"
        }
      ],
      "stateMutability": "view",
      "type": "function"
    },
    {
      "inputs": [],
      "name": "symbol",
      "outputs": [
        {
          "internalType": "string",
          "name": "",
          "type": "string"
        }
      ],
      "stateMutability": "view",
      "type": "function"
    },
    {
      "inputs": [],
      "name": "ticketId",
      "outputs": [
        {
          "internalType": "uint256",
          "name": "",
          "type": "uint256"
        }
      ],
      "stateMutability": "view",
      "type": "function"
    },
    {
      "inputs": [
        {
          "internalType": "uint256",
          "name": "tokenId",
          "type": "uint256"
        }
      ],
      "name": "tokenURI",
      "outputs": [
        {
          "internalType": "string",
          "name": "",
          "type": "string"
        }
      ],
      "stateMutability": "view",
      "type": "function"
    },
    {
      "inputs": [
        {
          "internalType": "address",
          "name": "from",
          "type": "address"
        },
        {
          "internalType": "address",
          "name": "to",
          "type": "address"
        },
        {
          "internalType": "uint256",
          "name": "tokenId",
          "type": "uint256"
        }
      ],
      "name": "transferFrom",
      "outputs": [],
      "stateMutability": "nonpayable",
      "type": "function"
    },
    {
      "inputs": [
        {
          "internalType": "address",
          "name": "newOwner",
          "type": "address"
        }
      ],
      "name": "transferOwnership",
      "outputs": [],
      "stateMutability": "nonpayable",
      "type": "function"
    },
    {
      "inputs": [
        {
          "internalType": "address",
          "name": "",
          "type": "address"
        },
        {
          "internalType": "uint256",
          "name": "",
          "type": "uint256"
        }
      ],
      "name": "userTickets",
      "outputs": [
        {
          "internalType": "uint256",
          "name": "id",
          "type": "uint256"
        },
        {
          "internalType": "string",
          "name": "eventName",
          "type": "string"
        },
        {
          "internalType": "uint256",
          "name": "eventDate",
          "type": "uint256"
        },
        {
          "internalType": "address",
          "name": "attendee",
          "type": "address"
        }
      ],
      "stateMutability": "view",
      "type": "function"
    }
  ],
  "bytecode": "0x608060405234801561001057600080fd5b50336040518060400160405280600981526020017f4163636573734e465400000000000000000000000000000000000000000000008152506040518060400160405280600481526020017f414e465400000000000000000000000000000000000000000000000000000000815250816000908161008d919061043d565b50806001908161009d919061043d565b505050600073ffffffffffffffffffffffffffffffffffffffff168173ffffffffffffffffffffffffffffffffffffffff16036101125760006040517f1e4fbdf70000000000000000000000000000000000000000000000000000000081526004016101099190610550565b60405180910390fd5b6101218161012760201b60201c565b5061056b565b6000600660009054906101000a900473ffffffffffffffffffffffffffffffffffffffff16905081600660006101000a81548173ffffffffffffffffffffffffffffffffffffffff021916908373ffffffffffffffffffffffffffffffffffffffff1602179055508173ffffffffffffffffffffffffffffffffffffffff168173ffffffffffffffffffffffffffffffffffffffff167f8be0079c531659141344cd1fd0a4f28419497f9722a3daafe3b4186f6b6457e060405160405180910390a35050565b600081519050919050565b7f4e487b7100000000000000000000000000000000000000000000000000000000600052604160045260246000fd5b7f4e487b7100000000000000000000000000000000000000000000000000000000600052602260045260246000fd5b6000600282049050600182168061026e57607f821691505b60208210810361028157610280610227565b5b50919050565b60008190508160005260206000209050919050565b60006020601f8301049050919050565b600082821b905092915050565b6000600883026102e97fffffffffffffffffffffffffffffffffffffffffffffffffffffffffffffffff826102ac565b6102f386836102ac565b95508019841693508086168417925050509392505050565b6000819050919050565b6000819050919050565b600061033a6103356103308461030b565b610315565b61030b565b9050919050565b6000819050919050565b6103548361031f565b61036861036082610341565b8484546102b9565b825550505050565b600090565b61037d610370565b61038881848461034b565b505050565b5b818110156103ac576103a1600082610375565b60018101905061038e565b5050565b601f8211156103f1576103c281610287565b6103cb8461029c565b810160208510156103da578190505b6103ee6103e68561029c565b83018261038d565b50505b505050565b600082821c905092915050565b6000610414600019846008026103f6565b1980831691505092915050565b600061042d8383610403565b9150826002028217905092915050565b610446826101ed565b67ffffffffffffffff81111561045f5761045e6101f8565b5b6104698254610256565b6104748282856103b0565b600060209050601f8311600181146104a75760008415610495578287015190505b61049f8582610421565b865550610507565b601f1984166104b586610287565b60005b828110156104dd578489015182556001820191506020850194506020810190506104b8565b868310156104fa57848901516104f6601f891682610403565b8355505b6001600288020188555050505b505050505050565b600073ffffffffffffffffffffffffffffffffffffffff82169050919050565b600061053a8261050f565b9050919050565b61054a8161052f565b82525050565b60006020820190506105656000830184610541565b92915050565b612c718061057a6000396000f3fe608060405234801561001057600080fd5b506004361061014d5760003560e01c8063715018a6116100c3578063b88d4fde1161007c578063b88d4fde1461039c578063c87b56dd146103b8578063cf260baf146103e8578063e985e9c51461041b578063f2fde38b1461044b578063f9f0164a146104675761014d565b8063715018a6146102ec57806375794a3c146102f65780638da5cb5b1461031457806395a078e81461033257806395d89b4114610362578063a22cb465146103805761014d565b8063119bf76c11610115578063119bf76c1461021c57806323b872dd1461023857806342842e0e1461025457806354ba0f27146102705780636352211e1461028c57806370a08231146102bc5761014d565b806301ffc9a71461015257806306fdde0314610182578063081812fc146101a0578063095ea7b3146101d05780630ad182bc146101ec575b600080fd5b61016c60048036038101906101679190611e3c565b610485565b6040516101799190611e84565b60405180910390f35b61018a610567565b6040516101979190611f2f565b60405180910390f35b6101ba60048036038101906101b59190611f87565b6105f9565b6040516101c79190611ff5565b60405180910390f35b6101ea60048036038101906101e5919061203c565b610615565b005b6102066004803603810190610201919061207c565b61062b565b6040516102139190612236565b60405180910390f35b6102366004803603810190610231919061238d565b6107c5565b005b610252600480360381019061024d91906123e9565b610946565b005b61026e600480360381019061026991906123e9565b610a48565b005b61028a6004803603810190610285919061207c565b610a68565b005b6102a660048036038101906102a19190611f87565b610a97565b6040516102b39190611ff5565b60405180910390f35b6102d660048036038101906102d1919061207c565b610aa9565b6040516102e3919061244b565b60405180910390f35b6102f4610b63565b005b6102fe610b77565b60405161030b919061244b565b60405180910390f35b61031c610b7d565b6040516103299190611ff5565b60405180910390f35b61034c6004803603810190610347919061207c565b610ba7565b6040516103599190611e84565b60405180910390f35b61036a610bbb565b6040516103779190611f2f565b60405180910390f35b61039a60048036038101906103959190612492565b610c4d565b005b6103b660048036038101906103b19190612573565b610c63565b005b6103d260048036038101906103cd9190611f87565b610c88565b6040516103df9190611f2f565b60405180910390f35b61040260048036038101906103fd919061203c565b610cf1565b60405161041294939291906125f6565b60405180910390f35b61043560048036038101906104309190612642565b610de6565b6040516104429190611e84565b60405180910390f35b6104656004803603810190610460919061207c565b610e7a565b005b61046f610f00565b60405161047c919061244b565b60405180910390f35b60007f80ac58cd000000000000000000000000000000000000000000000000000000007bffffffffffffffffffffffffffffffffffffffffffffffffffffffff1916827bffffffffffffffffffffffffffffffffffffffffffffffffffffffff1916148061055057507f5b5e139f000000000000000000000000000000000000000000000000000000007bffffffffffffffffffffffffffffffffffffffffffffffffffffffff1916827bffffffffffffffffffffffffffffffffffffffffffffffffffffffff1916145b80610560575061055f82610f06565b5b9050919050565b606060008054610576906126b1565b80601f01602080910402602001604051908101604052809291908181526020018280546105a2906126b1565b80156105ef5780601f106105c4576101008083540402835291602001916105ef565b820191906000526020600020905b8154815290600101906020018083116105d257829003601f168201915b5050505050905090565b600061060482610f70565b5061060e82610ff8565b9050919050565b6106278282610622611035565b61103d565b5050565b6060600960008373ffffffffffffffffffffffffffffffffffffffff1673ffffffffffffffffffffffffffffffffffffffff168152602001908152602001600020805480602002602001604051908101604052809291908181526020016000905b828210156107ba5783829060005260206000209060040201604051806080016040529081600082015481526020016001820180546106c9906126b1565b80601f01602080910402602001604051908101604052809291908181526020018280546106f5906126b1565b80156107425780601f1061071757610100808354040283529160200191610742565b820191906000526020600020905b81548152906001019060200180831161072557829003601f168201915b50505050508152602001600282015481526020016003820160009054906101000a900473ffffffffffffffffffffffffffffffffffffffff1673ffffffffffffffffffffffffffffffffffffffff1673ffffffffffffffffffffffffffffffffffffffff16815250508152602001906001019061068c565b505050509050919050565b60006107d033610aa9565b11610810576040517f08c379a000000000000000000000000000000000000000000000000000000000815260040161080790612754565b60405180910390fd5b6000604051806080016040528060085481526020018481526020018381526020013373ffffffffffffffffffffffffffffffffffffffff168152509050600960003373ffffffffffffffffffffffffffffffffffffffff1673ffffffffffffffffffffffffffffffffffffffff1681526020019081526020016000208190806001815401808255809150506001900390600052602060002090600402016000909190919091506000820151816000015560208201518160010190816108d59190612920565b506040820151816002015560608201518160030160006101000a81548173ffffffffffffffffffffffffffffffffffffffff021916908373ffffffffffffffffffffffffffffffffffffffff16021790555050506008600081548092919061093c90612a21565b9190505550505050565b600073ffffffffffffffffffffffffffffffffffffffff168273ffffffffffffffffffffffffffffffffffffffff16036109b85760006040517f64a0ae920000000000000000000000000000000000000000000000000000000081526004016109af9190611ff5565b60405180910390fd5b60006109cc83836109c7611035565b61104f565b90508373ffffffffffffffffffffffffffffffffffffffff168173ffffffffffffffffffffffffffffffffffffffff1614610a42578382826040517f64283d7b000000000000000000000000000000000000000000000000000000008152600401610a3993929190612a69565b60405180910390fd5b50505050565b610a6383838360405180602001604052806000815250610c63565b505050565b610a70611269565b610a7c816007546112f0565b60076000815480929190610a8f90612a21565b919050555050565b6000610aa282610f70565b9050919050565b60008073ffffffffffffffffffffffffffffffffffffffff168273ffffffffffffffffffffffffffffffffffffffff1603610b1c5760006040517f89c62b64000000000000000000000000000000000000000000000000000000008152600401610b139190611ff5565b60405180910390fd5b600360008373ffffffffffffffffffffffffffffffffffffffff1673ffffffffffffffffffffffffffffffffffffffff168152602001908152602001600020549050919050565b610b6b611269565b610b75600061130e565b565b60075481565b6000600660009054906101000a900473ffffffffffffffffffffffffffffffffffffffff16905090565b600080610bb383610aa9565b119050919050565b606060018054610bca906126b1565b80601f0160208091040260200160405190810160405280929190818152602001828054610bf6906126b1565b8015610c435780601f10610c1857610100808354040283529160200191610c43565b820191906000526020600020905b815481529060010190602001808311610c2657829003601f168201915b5050505050905090565b610c5f610c58611035565b83836113d4565b5050565b610c6e848484610946565b610c82610c79611035565b85858585611543565b50505050565b6060610c9382610f70565b506000610c9e6116f4565b90506000815111610cbe5760405180602001604052806000815250610ce9565b80610cc88461170b565b604051602001610cd9929190612adc565b6040516020818303038152906040525b915050919050565b60096020528160005260406000208181548110610d0d57600080fd5b906000526020600020906004020160009150915050806000015490806001018054610d37906126b1565b80601f0160208091040260200160405190810160405280929190818152602001828054610d63906126b1565b8015610db05780601f10610d8557610100808354040283529160200191610db0565b820191906000526020600020905b815481529060010190602001808311610d9357829003601f168201915b5050505050908060020154908060030160009054906101000a900473ffffffffffffffffffffffffffffffffffffffff16905084565b6000600560008473ffffffffffffffffffffffffffffffffffffffff1673ffffffffffffffffffffffffffffffffffffffff16815260200190815260200160002060008373ffffffffffffffffffffffffffffffffffffffff1673ffffffffffffffffffffffffffffffffffffffff16815260200190815260200160002060009054906101000a900460ff16905092915050565b610e82611269565b600073ffffffffffffffffffffffffffffffffffffffff168173ffffffffffffffffffffffffffffffffffffffff1603610ef45760006040517f1e4fbdf7000000000000000000000000000000000000000000000000000000008152600401610eeb9190611ff5565b60405180910390fd5b610efd8161130e565b50565b60085481565b60007f01ffc9a7000000000000000000000000000000000000000000000000000000007bffffffffffffffffffffffffffffffffffffffffffffffffffffffff1916827bffffffffffffffffffffffffffffffffffffffffffffffffffffffff1916149050919050565b600080610f7c836117d9565b9050600073ffffffffffffffffffffffffffffffffffffffff168173ffffffffffffffffffffffffffffffffffffffff1603610fef57826040517f7e273289000000000000000000000000000000000000000000000000000000008152600401610fe6919061244b565b60405180910390fd5b80915050919050565b60006004600083815260200190815260200160002060009054906101000a900473ffffffffffffffffffffffffffffffffffffffff169050919050565b600033905090565b61104a8383836001611816565b505050565b60008061105b846117d9565b9050600073ffffffffffffffffffffffffffffffffffffffff168373ffffffffffffffffffffffffffffffffffffffff161461109d5761109c8184866119db565b5b600073ffffffffffffffffffffffffffffffffffffffff168173ffffffffffffffffffffffffffffffffffffffff161461112e576110df600085600080611816565b6001600360008373ffffffffffffffffffffffffffffffffffffffff1673ffffffffffffffffffffffffffffffffffffffff168152602001908152602001600020600082825403925050819055505b600073ffffffffffffffffffffffffffffffffffffffff168573ffffffffffffffffffffffffffffffffffffffff16146111b1576001600360008773ffffffffffffffffffffffffffffffffffffffff1673ffffffffffffffffffffffffffffffffffffffff168152602001908152602001600020600082825401925050819055505b846002600086815260200190815260200160002060006101000a81548173ffffffffffffffffffffffffffffffffffffffff021916908373ffffffffffffffffffffffffffffffffffffffff160217905550838573ffffffffffffffffffffffffffffffffffffffff168273ffffffffffffffffffffffffffffffffffffffff167fddf252ad1be2c89b69c2b068fc378daa952ba7f163c4a11628f55a4df523b3ef60405160405180910390a4809150509392505050565b611271611035565b73ffffffffffffffffffffffffffffffffffffffff1661128f610b7d565b73ffffffffffffffffffffffffffffffffffffffff16146112ee576112b2611035565b6040517f118cdaa70000000000000000000000000000000000000000000000000000000081526004016112e59190611ff5565b60405180910390fd5b565b61130a828260405180602001604052806000815250611a9f565b5050565b6000600660009054906101000a900473ffffffffffffffffffffffffffffffffffffffff16905081600660006101000a81548173ffffffffffffffffffffffffffffffffffffffff021916908373ffffffffffffffffffffffffffffffffffffffff1602179055508173ffffffffffffffffffffffffffffffffffffffff168173ffffffffffffffffffffffffffffffffffffffff167f8be0079c531659141344cd1fd0a4f28419497f9722a3daafe3b4186f6b6457e060405160405180910390a35050565b600073ffffffffffffffffffffffffffffffffffffffff168273ffffffffffffffffffffffffffffffffffffffff160361144557816040517f5b08ba1800000000000000000000000000000000000000000000000000000000815260040161143c9190611ff5565b60405180910390fd5b80600560008573ffffffffffffffffffffffffffffffffffffffff1673ffffffffffffffffffffffffffffffffffffffff16815260200190815260200160002060008473ffffffffffffffffffffffffffffffffffffffff1673ffffffffffffffffffffffffffffffffffffffff16815260200190815260200160002060006101000a81548160ff0219169083151502179055508173ffffffffffffffffffffffffffffffffffffffff168373ffffffffffffffffffffffffffffffffffffffff167f17307eab39ab6107e8899845ad3d59bd9653f200f220920489ca2b5937696c31836040516115369190611e84565b60405180910390a3505050565b60008373ffffffffffffffffffffffffffffffffffffffff163b11156116ed578273ffffffffffffffffffffffffffffffffffffffff1663150b7a02868685856040518563ffffffff1660e01b81526004016115a29493929190612b55565b6020604051808303816000875af19250505080156115de57506040513d601f19601f820116820180604052508101906115db9190612bb6565b60015b611662573d806000811461160e576040519150601f19603f3d011682016040523d82523d6000602084013e611613565b606091505b50600081510361165a57836040517f64a0ae920000000000000000000000000000000000000000000000000000000081526004016116519190611ff5565b60405180910390fd5b805181602001fd5b63150b7a0260e01b7bffffffffffffffffffffffffffffffffffffffffffffffffffffffff1916817bffffffffffffffffffffffffffffffffffffffffffffffffffffffff1916146116eb57836040517f64a0ae920000000000000000000000000000000000000000000000000000000081526004016116e29190611ff5565b60405180910390fd5b505b5050505050565b606060405180602001604052806000815250905090565b60606000600161171a84611ac3565b01905060008167ffffffffffffffff81111561173957611738612262565b5b6040519080825280601f01601f19166020018201604052801561176b5781602001600182028036833780820191505090505b509050600082602001820190505b6001156117ce578080600190039150507f3031323334353637383961626364656600000000000000000000000000000000600a86061a8153600a85816117c2576117c1612be3565b5b04945060008503611779575b819350505050919050565b60006002600083815260200190815260200160002060009054906101000a900473ffffffffffffffffffffffffffffffffffffffff169050919050565b808061184f5750600073ffffffffffffffffffffffffffffffffffffffff168273ffffffffffffffffffffffffffffffffffffffff1614155b1561198357600061185f84610f70565b9050600073ffffffffffffffffffffffffffffffffffffffff168373ffffffffffffffffffffffffffffffffffffffff16141580156118ca57508273ffffffffffffffffffffffffffffffffffffffff168173ffffffffffffffffffffffffffffffffffffffff1614155b80156118dd57506118db8184610de6565b155b1561191f57826040517fa9fbf51f0000000000000000000000000000000000000000000000000000000081526004016119169190611ff5565b60405180910390fd5b811561198157838573ffffffffffffffffffffffffffffffffffffffff168273ffffffffffffffffffffffffffffffffffffffff167f8c5be1e5ebec7d5bd14f71427d1e84f3dd0314c0f7b2291e5b200ac8c7c3b92560405160405180910390a45b505b836004600085815260200190815260200160002060006101000a81548173ffffffffffffffffffffffffffffffffffffffff021916908373ffffffffffffffffffffffffffffffffffffffff16021790555050505050565b6119e6838383611c16565b611a9a57600073ffffffffffffffffffffffffffffffffffffffff168373ffffffffffffffffffffffffffffffffffffffff1603611a5b57806040517f7e273289000000000000000000000000000000000000000000000000000000008152600401611a52919061244b565b60405180910390fd5b81816040517f177e802f000000000000000000000000000000000000000000000000000000008152600401611a91929190612c12565b60405180910390fd5b505050565b611aa98383611cd7565b611abe611ab4611035565b6000858585611543565b505050565b600080600090507a184f03e93ff9f4daa797ed6e38ed64bf6a1f0100000000000000008310611b21577a184f03e93ff9f4daa797ed6e38ed64bf6a1f0100000000000000008381611b1757611b16612be3565b5b0492506040810190505b6d04ee2d6d415b85acef81000000008310611b5e576d04ee2d6d415b85acef81000000008381611b5457611b53612be3565b5b0492506020810190505b662386f26fc100008310611b8d57662386f26fc100008381611b8357611b82612be3565b5b0492506010810190505b6305f5e1008310611bb6576305f5e1008381611bac57611bab612be3565b5b0492506008810190505b6127108310611bdb576127108381611bd157611bd0612be3565b5b0492506004810190505b60648310611bfe5760648381611bf457611bf3612be3565b5b0492506002810190505b600a8310611c0d576001810190505b80915050919050565b60008073ffffffffffffffffffffffffffffffffffffffff168373ffffffffffffffffffffffffffffffffffffffff1614158015611cce57508273ffffffffffffffffffffffffffffffffffffffff168473ffffffffffffffffffffffffffffffffffffffff161480611c8f5750611c8e8484610de6565b5b80611ccd57508273ffffffffffffffffffffffffffffffffffffffff16611cb583610ff8565b73ffffffffffffffffffffffffffffffffffffffff16145b5b90509392505050565b600073ffffffffffffffffffffffffffffffffffffffff168273ffffffffffffffffffffffffffffffffffffffff1603611d495760006040517f64a0ae92000000000000000000000000000000000000000000000000000000008152600401611d409190611ff5565b60405180910390fd5b6000611d578383600061104f565b9050600073ffffffffffffffffffffffffffffffffffffffff168173ffffffffffffffffffffffffffffffffffffffff1614611dcb5760006040517f73c6ac6e000000000000000000000000000000000000000000000000000000008152600401611dc29190611ff5565b60405180910390fd5b505050565b6000604051905090565b600080fd5b600080fd5b60007fffffffff0000000000000000000000000000000000000000000000000000000082169050919050565b611e1981611de4565b8114611e2457600080fd5b50565b600081359050611e3681611e10565b92915050565b600060208284031215611e5257611e51611dda565b5b6000611e6084828501611e27565b91505092915050565b60008115159050919050565b611e7e81611e69565b82525050565b6000602082019050611e996000830184611e75565b92915050565b600081519050919050565b600082825260208201905092915050565b60005b83811015611ed9578082015181840152602081019050611ebe565b60008484015250505050565b6000601f19601f8301169050919050565b6000611f0182611e9f565b611f0b8185611eaa565b9350611f1b818560208601611ebb565b611f2481611ee5565b840191505092915050565b60006020820190508181036000830152611f498184611ef6565b905092915050565b6000819050919050565b611f6481611f51565b8114611f6f57600080fd5b50565b600081359050611f8181611f5b565b92915050565b600060208284031215611f9d57611f9c611dda565b5b6000611fab84828501611f72565b91505092915050565b600073ffffffffffffffffffffffffffffffffffffffff82169050919050565b6000611fdf82611fb4565b9050919050565b611fef81611fd4565b82525050565b600060208201905061200a6000830184611fe6565b92915050565b61201981611fd4565b811461202457600080fd5b50565b60008135905061203681612010565b92915050565b6000806040838503121561205357612052611dda565b5b600061206185828601612027565b925050602061207285828601611f72565b9150509250929050565b60006020828403121561209257612091611dda565b5b60006120a084828501612027565b91505092915050565b600081519050919050565b600082825260208201905092915050565b6000819050602082019050919050565b6120de81611f51565b82525050565b600082825260208201905092915050565b600061210082611e9f565b61210a81856120e4565b935061211a818560208601611ebb565b61212381611ee5565b840191505092915050565b61213781611fd4565b82525050565b600060808301600083015161215560008601826120d5565b506020830151848203602086015261216d82826120f5565b915050604083015161218260408601826120d5565b506060830151612195606086018261212e565b508091505092915050565b60006121ac838361213d565b905092915050565b6000602082019050919050565b60006121cc826120a9565b6121d681856120b4565b9350836020820285016121e8856120c5565b8060005b85811015612224578484038952815161220585826121a0565b9450612210836121b4565b925060208a019950506001810190506121ec565b50829750879550505050505092915050565b6000602082019050818103600083015261225081846121c1565b905092915050565b600080fd5b600080fd5b7f4e487b7100000000000000000000000000000000000000000000000000000000600052604160045260246000fd5b61229a82611ee5565b810181811067ffffffffffffffff821117156122b9576122b8612262565b5b80604052505050565b60006122cc611dd0565b90506122d88282612291565b919050565b600067ffffffffffffffff8211156122f8576122f7612262565b5b61230182611ee5565b9050602081019050919050565b82818337600083830152505050565b600061233061232b846122dd565b6122c2565b90508281526020810184848401111561234c5761234b61225d565b5b61235784828561230e565b509392505050565b600082601f83011261237457612373612258565b5b813561238484826020860161231d565b91505092915050565b600080604083850312156123a4576123a3611dda565b5b600083013567ffffffffffffffff8111156123c2576123c1611ddf565b5b6123ce8582860161235f565b92505060206123df85828601611f72565b9150509250929050565b60008060006060848603121561240257612401611dda565b5b600061241086828701612027565b935050602061242186828701612027565b925050604061243286828701611f72565b9150509250925092565b61244581611f51565b82525050565b6000602082019050612460600083018461243c565b92915050565b61246f81611e69565b811461247a57600080fd5b50565b60008135905061248c81612466565b92915050565b600080604083850312156124a9576124a8611dda565b5b60006124b785828601612027565b92505060206124c88582860161247d565b9150509250929050565b600067ffffffffffffffff8211156124ed576124ec612262565b5b6124f682611ee5565b9050602081019050919050565b6000612516612511846124d2565b6122c2565b9050828152602081018484840111156125325761253161225d565b5b61253d84828561230e565b509392505050565b600082601f83011261255a57612559612258565b5b813561256a848260208601612503565b91505092915050565b6000806000806080858703121561258d5761258c611dda565b5b600061259b87828801612027565b94505060206125ac87828801612027565b93505060406125bd87828801611f72565b925050606085013567ffffffffffffffff8111156125de576125dd611ddf565b5b6125ea87828801612545565b91505092959194509250565b600060808201905061260b600083018761243c565b818103602083015261261d8186611ef6565b905061262c604083018561243c565b6126396060830184611fe6565b95945050505050565b6000806040838503121561265957612658611dda565b5b600061266785828601612027565b925050602061267885828601612027565b9150509250929050565b7f4e487b7100000000000000000000000000000000000000000000000000000000600052602260045260246000fd5b600060028204905060018216806126c957607f821691505b6020821081036126dc576126db612682565b5b50919050565b7f596f75206d757374206f776e20616e20616363657373204e465420746f20626f60008201527f6f6b000000000000000000000000000000000000000000000000000000000000602082015250565b600061273e602283611eaa565b9150612749826126e2565b604082019050919050565b6000602082019050818103600083015261276d81612731565b9050919050565b60008190508160005260206000209050919050565b60006020601f8301049050919050565b600082821b905092915050565b6000600883026127d67fffffffffffffffffffffffffffffffffffffffffffffffffffffffffffffffff82612799565b6127e08683612799565b95508019841693508086168417925050509392505050565b6000819050919050565b600061281d61281861281384611f51565b6127f8565b611f51565b9050919050565b6000819050919050565b61283783612802565b61284b61284382612824565b8484546127a6565b825550505050565b600090565b612860612853565b61286b81848461282e565b505050565b5b8181101561288f57612884600082612858565b600181019050612871565b5050565b601f8211156128d4576128a581612774565b6128ae84612789565b810160208510156128bd578190505b6128d16128c985612789565b830182612870565b50505b505050565b600082821c905092915050565b60006128f7600019846008026128d9565b1980831691505092915050565b600061291083836128e6565b9150826002028217905092915050565b61292982611e9f565b67ffffffffffffffff81111561294257612941612262565b5b61294c82546126b1565b612957828285612893565b600060209050601f83116001811461298a5760008415612978578287015190505b6129828582612904565b8655506129ea565b601f19841661299886612774565b60005b828110156129c05784890151825560018201915060208501945060208101905061299b565b868310156129dd57848901516129d9601f8916826128e6565b8355505b6001600288020188555050505b505050505050565b7f4e487b7100000000000000000000000000000000000000000000000000000000600052601160045260246000fd5b6000612a2c82611f51565b91507fffffffffffffffffffffffffffffffffffffffffffffffffffffffffffffffff8203612a5e57612a5d6129f2565b5b600182019050919050565b6000606082019050612a7e6000830186611fe6565b612a8b602083018561243c565b612a986040830184611fe6565b949350505050565b600081905092915050565b6000612ab682611e9f565b612ac08185612aa0565b9350612ad0818560208601611ebb565b80840191505092915050565b6000612ae88285612aab565b9150612af48284612aab565b91508190509392505050565b600081519050919050565b600082825260208201905092915050565b6000612b2782612b00565b612b318185612b0b565b9350612b41818560208601611ebb565b612b4a81611ee5565b840191505092915050565b6000608082019050612b6a6000830187611fe6565b612b776020830186611fe6565b612b84604083018561243c565b8181036060830152612b968184612b1c565b905095945050505050565b600081519050612bb081611e10565b92915050565b600060208284031215612bcc57612bcb611dda565b5b6000612bda84828501612ba1565b91505092915050565b7f4e487b7100000000000000000000000000000000000000000000000000000000600052601260045260246000fd5b6000604082019050612c276000830185611fe6565b612c34602083018461243c565b939250505056fea26469706673582212206385e4881252d13d3dcdeadf76ec3b946934eb9960efbed0df99684ebe74416664736f6c634300081c0033",
  "linkReferences": {},
  "deployedLinkReferences": {}
}