{
  "_format": "hh-sol-artifact-1",
  "contractName": "TicketAccessNFT",
  "sourceName": "contracts/TicketAccessNFT.sol",
  "abi": [
    {
      "inputs": [],
      "stateMutability": "nonpayable",
      "type": "constructor"
    },
    {
      "inputs": [
        {
          "internalType": "address",
          "name": "sender",
          "type": "address"
        },
        {
          "internalType": "uint256",
          "name": "tokenId",
          "type": "uint256"
        },
        {
          "internalType": "address",
          "name": "owner",
          "type": "address"
        }
      ],
      "name": "ERC721IncorrectOwner",
      "type": "error"
    },
    {
      "inputs": [
        {
          "internalType": "address",
          "name": "operator",
          "type": "address"
        },
        {
          "internalType": "uint256",
          "name": "tokenId",
          "type": "uint256"
        }
      ],
      "name": "ERC721InsufficientApproval",
      "type": "error"
    },
    {
      "inputs": [
        {
          "internalType": "address",
          "name": "approver",
          "type": "address"
        }
      ],
      "name": "ERC721InvalidApprover",
      "type": "error"
    },
    {
      "inputs": [
        {
          "internalType": "address",
          "name": "operator",
          "type": "address"
        }
      ],
      "name": "ERC721InvalidOperator",
      "type": "error"
    },
    {
      "inputs": [
        {
          "internalType": "address",
          "name": "owner",
          "type": "address"
        }
      ],
      "name": "ERC721InvalidOwner",
      "type": "error"
    },
    {
      "inputs": [
        {
          "internalType": "address",
          "name": "receiver",
          "type": "address"
        }
      ],
      "name": "ERC721InvalidReceiver",
      "type": "error"
    },
    {
      "inputs": [
        {
          "internalType": "address",
          "name": "sender",
          "type": "address"
        }
      ],
      "name": "ERC721InvalidSender",
      "type": "error"
    },
    {
      "inputs": [
        {
          "internalType": "uint256",
          "name": "tokenId",
          "type": "uint256"
        }
      ],
      "name": "ERC721NonexistentToken",
      "type": "error"
    },
    {
      "inputs": [
        {
          "internalType": "address",
          "name": "owner",
          "type": "address"
        }
      ],
      "name": "OwnableInvalidOwner",
      "type": "error"
    },
    {
      "inputs": [
        {
          "internalType": "address",
          "name": "account",
          "type": "address"
        }
      ],
      "name": "OwnableUnauthorizedAccount",
      "type": "error"
    },
    {
      "anonymous": false,
      "inputs": [
        {
          "indexed": true,
          "internalType": "address",
          "name": "owner",
          "type": "address"
        },
        {
          "indexed": true,
          "internalType": "address",
          "name": "approved",
          "type": "address"
        },
        {
          "indexed": true,
          "internalType": "uint256",
          "name": "tokenId",
          "type": "uint256"
        }
      ],
      "name": "Approval",
      "type": "event"
    },
    {
      "anonymous": false,
      "inputs": [
        {
          "indexed": true,
          "internalType": "address",
          "name": "owner",
          "type": "address"
        },
        {
          "indexed": true,
          "internalType": "address",
          "name": "operator",
          "type": "address"
        },
        {
          "indexed": false,
          "internalType": "bool",
          "name": "approved",
          "type": "bool"
        }
      ],
      "name": "ApprovalForAll",
      "type": "event"
    },
    {
      "anonymous": false,
      "inputs": [
        {
          "indexed": true,
          "internalType": "address",
          "name": "previousOwner",
          "type": "address"
        },
        {
          "indexed": true,
          "internalType": "address",
          "name": "newOwner",
          "type": "address"
        }
      ],
      "name": "OwnershipTransferred",
      "type": "event"
    },
    {
      "anonymous": false,
      "inputs": [
        {
          "indexed": true,
          "internalType": "address",
          "name": "from",
          "type": "address"
        },
        {
          "indexed": true,
          "internalType": "address",
          "name": "to",
          "type": "address"
        },
        {
          "indexed": true,
          "internalType": "uint256",
          "name": "tokenId",
          "type": "uint256"
        }
      ],
      "name": "Transfer",
      "type": "event"
    },
    {
      "inputs": [
        {
          "internalType": "address",
          "name": "to",
          "type": "address"
        },
        {
          "internalType": "uint256",
          "name": "tokenId",
          "type": "uint256"
        }
      ],
      "name": "approve",
      "outputs": [],
      "stateMutability": "nonpayable",
      "type": "function"
    },
    {
      "inputs": [
        {
          "internalType": "address",
          "name": "owner",
          "type": "address"
        }
      ],
      "name": "balanceOf",
      "outputs": [
        {
          "internalType": "uint256",
          "name": "",
          "type": "uint256"
        }
      ],
      "stateMutability": "view",
      "type": "function"
    },
    {
      "inputs": [
        {
          "internalType": "string",
          "name": "eventName",
          "type": "string"
        },
        {
          "internalType": "uint256",
          "name": "eventDate",
          "type": "uint256"
        }
      ],
      "name": "bookTicket",
      "outputs": [],
      "stateMutability": "nonpayable",
      "type": "function"
    },
    {
      "inputs": [
        {
          "internalType": "uint256",
          "name": "tokenId",
          "type": "uint256"
        }
      ],
      "name": "getApproved",
      "outputs": [
        {
          "internalType": "address",
          "name": "",
          "type": "address"
        }
      ],
      "stateMutability": "view",
      "type": "function"
    },
    {
      "inputs": [
        {
          "internalType": "address",
          "name": "user",
          "type": "address"
        }
      ],
      "name": "getTickets",
      "outputs": [
        {
          "components": [
            {
              "internalType": "uint256",
              "name": "id",
              "type": "uint256"
            },
            {
              "internalType": "string",
              "name": "eventName",
              "type": "string"
            },
            {
              "internalType": "uint256",
              "name": "eventDate",
              "type": "uint256"
            },
            {
              "internalType": "address",
              "name": "attendee",
              "type": "address"
            }
          ],
          "internalType": "struct TicketAccessNFT.Ticket[]",
          "name": "",
          "type": "tuple[]"
        }
      ],
      "stateMutability": "view",
      "type": "function"
    },
    {
      "inputs": [
        {
          "internalType": "address",
          "name": "user",
          "type": "address"
        }
      ],
      "name": "hasAccess",
      "outputs": [
        {
          "internalType": "bool",
          "name": "",
          "type": "bool"
        }
      ],
      "stateMutability": "view",
      "type": "function"
    },
    {
      "inputs": [
        {
          "internalType": "address",
          "name": "owner",
          "type": "address"
        },
        {
          "internalType": "address",
          "name": "operator",
          "type": "address"
        }
      ],
      "name": "isApprovedForAll",
      "outputs": [
        {
          "internalType": "bool",
          "name": "",
          "type": "bool"
        }
      ],
      "stateMutability": "view",
      "type": "function"
    },
    {
      "inputs": [
        {
          "internalType": "address",
          "name": "to",
          "type": "address"
        }
      ],
      "name": "mintNFT",
      "outputs": [],
      "stateMutability": "nonpayable",
      "type": "function"
    },
    {
      "inputs": [],
      "name": "name",
      "outputs": [
        {
          "internalType": "string",
          "name": "",
          "type": "string"
        }
      ],
      "stateMutability": "view",
      "type": "function"
    },
    {
      "inputs": [],
      "name": "nextTokenId",
      "outputs": [
        {
          "internalType": "uint256",
          "name": "",
          "type": "uint256"
        }
      ],
      "stateMutability": "view",
      "type": "function"
    },
    {
      "inputs": [],
      "name": "owner",
      "outputs": [
        {
          "internalType": "address",
          "name": "",
          "type": "address"
        }
      ],
      "stateMutability": "view",
      "type": "function"
    },
    {
      "inputs": [
        {
          "internalType": "uint256",
          "name": "tokenId",
          "type": "uint256"
        }
      ],
      "name": "ownerOf",
      "outputs": [
        {
          "internalType": "address",
          "name": "",
          "type": "address"
        }
      ],
      "stateMutability": "view",
      "type": "function"
    },
    {
      "inputs": [],
      "name": "renounceOwnership",
      "outputs": [],
      "stateMutability": "nonpayable",
      "type": "function"
    },
    {
      "inputs": [
        {
          "internalType": "address",
          "name": "from",
          "type": "address"
        },
        {
          "internalType": "address",
          "name": "to",
          "type": "address"
        },
        {
          "internalType": "uint256",
          "name": "tokenId",
          "type": "uint256"
        }
      ],
      "name": "safeTransferFrom",
      "outputs": [],
      "stateMutability": "nonpayable",
      "type": "function"
    },
    {
      "inputs": [
        {
          "internalType": "address",
          "name": "from",
          "type": "address"
        },
        {
          "internalType": "address",
          "name": "to",
          "type": "address"
        },
        {
          "internalType": "uint256",
          "name": "tokenId",
          "type": "uint256"
        },
        {
          "internalType": "bytes",
          "name": "data",
          "type": "bytes"
        }
      ],
      "name": "safeTransferFrom",
      "outputs": [],
      "stateMutability": "nonpayable",
      "type": "function"
    },
    {
      "inputs": [
        {
          "internalType": "address",
          "name": "operator",
          "type": "address"
        },
        {
          "internalType": "bool",
          "name": "approved",
          "type": "bool"
        }
      ],
      "name": "setApprovalForAll",
      "outputs": [],
      "stateMutability": "nonpayable",
      "type": "function"
    },
    {
      "inputs": [
        {
          "internalType": "bytes4",
          "name": "interfaceId",
          "type": "bytes4"
        }
      ],
      "name": "supportsInterface",
      "outputs": [
        {
          "internalType": "bool",
          "name": "",
          "type": "bool"
        }
      ],
      "stateMutability": "view",
      "type": "function"
    },
    {
      "inputs": [],
      "name": "symbol",
      "outputs": [
        {
          "internalType": "string",
          "name": "",
          "type": "string"
        }
      ],
      "stateMutability": "view",
      "type": "function"
    },
    {
      "inputs": [],
      "name": "ticketId",
      "outputs": [
        {
          "internalType": "uint256",
          "name": "",
          "type": "uint256"
        }
      ],
      "stateMutability": "view",
      "type": "function"
    },
    {
      "inputs": [
        {
          "internalType": "uint256",
          "name": "tokenId",
          "type": "uint256"
        }
      ],
      "name": "tokenURI",
      "outputs": [
        {
          "internalType": "string",
          "name": "",
          "type": "string"
        }
      ],
      "stateMutability": "view",
      "type": "function"
    },
    {
      "inputs": [
        {
          "internalType": "address",
          "name": "from",
          "type": "address"
        },
        {
          "internalType": "address",
          "name": "to",
          "type": "address"
        },
        {
          "internalType": "uint256",
          "name": "tokenId",
          "type": "uint256"
        }
      ],
      "name": "transferFrom",
      "outputs": [],
      "stateMutability": "nonpayable",
      "type": "function"
    },
    {
      "inputs": [
        {
          "internalType": "address",
          "name": "newOwner",
          "type": "address"
        }
      ],
      "name": "transferOwnership",
      "outputs": [],
      "stateMutability": "nonpayable",
      "type": "function"
    },
    {
      "inputs": [
        {
          "internalType": "address",
          "name": "",
          "type": "address"
        },
        {
          "internalType": "uint256",
          "name": "",
          "type": "uint256"
        }
      ],
      "name": "userTickets",
      "outputs": [
        {
          "internalType": "uint256",
          "name": "id",
          "type": "uint256"
        },
        {
          "internalType": "string",
          "name": "eventName",
          "type": "string"
        },
        {
          "internalType": "uint256",
          "name": "eventDate",
          "type": "uint256"
        },
        {
          "internalType": "address",
          "name": "attendee",
          "type": "address"
        }
      ],
      "stateMutability": "view",
      "type": "function"
    }
  ],
  "bytecode": "0x608060405234801561001057600080fd5b50336040518060400160405280600981526020017f4163636573734e465400000000000000000000000000000000000000000000008152506040518060400160405280600481526020017f414e465400000000000000000000000000000000000000000000000000000000815250816000908161008d919061043d565b50806001908161009d919061043d565b505050600073ffffffffffffffffffffffffffffffffffffffff168173ffffffffffffffffffffffffffffffffffffffff16036101125760006040517f1e4fbdf70000000000000000000000000000000000000000000000000000000081526004016101099190610550565b60405180910390fd5b6101218161012760201b60201c565b5061056b565b6000600660009054906101000a900473ffffffffffffffffffffffffffffffffffffffff16905081600660006101000a81548173ffffffffffffffffffffffffffffffffffffffff021916908373ffffffffffffffffffffffffffffffffffffffff1602179055508173ffffffffffffffffffffffffffffffffffffffff168173ffffffffffffffffffffffffffffffffffffffff167f8be0079c531659141344cd1fd0a4f28419497f9722a3daafe3b4186f6b6457e060405160405180910390a35050565b600081519050919050565b7f4e487b7100000000000000000000000000000000000000000000000000000000600052604160045260246000fd5b7f4e487b7100000000000000000000000000000000000000000000000000000000600052602260045260246000fd5b6000600282049050600182168061026e57607f821691505b60208210810361028157610280610227565b5b50919050565b60008190508160005260206000209050919050565b60006020601f8301049050919050565b600082821b905092915050565b6000600883026102e97fffffffffffffffffffffffffffffffffffffffffffffffffffffffffffffffff826102ac565b6102f386836102ac565b95508019841693508086168417925050509392505050565b6000819050919050565b6000819050919050565b600061033a6103356103308461030b565b610315565b61030b565b9050919050565b6000819050919050565b6103548361031f565b61036861036082610341565b8484546102b9565b825550505050565b600090565b61037d610370565b61038881848461034b565b505050565b5b818110156103ac576103a1600082610375565b60018101905061038e565b5050565b601f8211156103f1576103c281610287565b6103cb8461029c565b810160208510156103da578190505b6103ee6103e68561029c565b83018261038d565b50505b505050565b600082821c905092915050565b6000610414600019846008026103f6565b1980831691505092915050565b600061042d8383610403565b9150826002028217905092915050565b610446826101ed565b67ffffffffffffffff81111561045f5761045e6101f8565b5b6104698254610256565b6104748282856103b0565b600060209050601f8311600181146104a75760008415610495578287015190505b61049f8582610421565b865550610507565b601f1984166104b586610287565b60005b828110156104dd578489015182556001820191506020850194506020810190506104b8565b868310156104fa57848901516104f6601f891682610403565b8355505b6001600288020188555050505b505050505050565b600073ffffffffffffffffffffffffffffffffffffffff82169050919050565b600061053a8261050f565b9050919050565b61054a8161052f565b82525050565b60006020820190506105656000830184610541565b92915050565b612c698061057a6000396000f3fe608060405234801561001057600080fd5b506004361061014d5760003560e01c8063715018a6116100c3578063b88d4fde1161007c578063b88d4fde1461039c578063c87b56dd146103b8578063cf260baf146103e8578063e985e9c51461041b578063f2fde38b1461044b578063f9f0164a146104675761014d565b8063715018a6146102ec57806375794a3c146102f65780638da5cb5b1461031457806395a078e81461033257806395d89b4114610362578063a22cb465146103805761014d565b8063119bf76c11610115578063119bf76c1461021c57806323b872dd1461023857806342842e0e1461025457806354ba0f27146102705780636352211e1461028c57806370a08231146102bc5761014d565b806301ffc9a71461015257806306fdde0314610182578063081812fc146101a0578063095ea7b3146101d05780630ad182bc146101ec575b600080fd5b61016c60048036038101906101679190611e34565b610485565b6040516101799190611e7c565b60405180910390f35b61018a610567565b6040516101979190611f27565b60405180910390f35b6101ba60048036038101906101b59190611f7f565b6105f9565b6040516101c79190611fed565b60405180910390f35b6101ea60048036038101906101e59190612034565b610615565b005b61020660048036038101906102019190612074565b61062b565b604051610213919061222e565b60405180910390f35b61023660048036038101906102319190612385565b6107c5565b005b610252600480360381019061024d91906123e1565b610946565b005b61026e600480360381019061026991906123e1565b610a48565b005b61028a60048036038101906102859190612074565b610a68565b005b6102a660048036038101906102a19190611f7f565b610a8f565b6040516102b39190611fed565b60405180910390f35b6102d660048036038101906102d19190612074565b610aa1565b6040516102e39190612443565b60405180910390f35b6102f4610b5b565b005b6102fe610b6f565b60405161030b9190612443565b60405180910390f35b61031c610b75565b6040516103299190611fed565b60405180910390f35b61034c60048036038101906103479190612074565b610b9f565b6040516103599190611e7c565b60405180910390f35b61036a610bb3565b6040516103779190611f27565b60405180910390f35b61039a6004803603810190610395919061248a565b610c45565b005b6103b660048036038101906103b1919061256b565b610c5b565b005b6103d260048036038101906103cd9190611f7f565b610c80565b6040516103df9190611f27565b60405180910390f35b61040260048036038101906103fd9190612034565b610ce9565b60405161041294939291906125ee565b60405180910390f35b6104356004803603810190610430919061263a565b610dde565b6040516104429190611e7c565b60405180910390f35b61046560048036038101906104609190612074565b610e72565b005b61046f610ef8565b60405161047c9190612443565b60405180910390f35b60007f80ac58cd000000000000000000000000000000000000000000000000000000007bffffffffffffffffffffffffffffffffffffffffffffffffffffffff1916827bffffffffffffffffffffffffffffffffffffffffffffffffffffffff1916148061055057507f5b5e139f000000000000000000000000000000000000000000000000000000007bffffffffffffffffffffffffffffffffffffffffffffffffffffffff1916827bffffffffffffffffffffffffffffffffffffffffffffffffffffffff1916145b80610560575061055f82610efe565b5b9050919050565b606060008054610576906126a9565b80601f01602080910402602001604051908101604052809291908181526020018280546105a2906126a9565b80156105ef5780601f106105c4576101008083540402835291602001916105ef565b820191906000526020600020905b8154815290600101906020018083116105d257829003601f168201915b5050505050905090565b600061060482610f68565b5061060e82610ff0565b9050919050565b610627828261062261102d565b611035565b5050565b6060600960008373ffffffffffffffffffffffffffffffffffffffff1673ffffffffffffffffffffffffffffffffffffffff168152602001908152602001600020805480602002602001604051908101604052809291908181526020016000905b828210156107ba5783829060005260206000209060040201604051806080016040529081600082015481526020016001820180546106c9906126a9565b80601f01602080910402602001604051908101604052809291908181526020018280546106f5906126a9565b80156107425780601f1061071757610100808354040283529160200191610742565b820191906000526020600020905b81548152906001019060200180831161072557829003601f168201915b50505050508152602001600282015481526020016003820160009054906101000a900473ffffffffffffffffffffffffffffffffffffffff1673ffffffffffffffffffffffffffffffffffffffff1673ffffffffffffffffffffffffffffffffffffffff16815250508152602001906001019061068c565b505050509050919050565b60006107d033610aa1565b11610810576040517f08c379a00000000000000000000000000000000000000000000000000000000081526004016108079061274c565b60405180910390fd5b6000604051806080016040528060085481526020018481526020018381526020013373ffffffffffffffffffffffffffffffffffffffff168152509050600960003373ffffffffffffffffffffffffffffffffffffffff1673ffffffffffffffffffffffffffffffffffffffff1681526020019081526020016000208190806001815401808255809150506001900390600052602060002090600402016000909190919091506000820151816000015560208201518160010190816108d59190612918565b506040820151816002015560608201518160030160006101000a81548173ffffffffffffffffffffffffffffffffffffffff021916908373ffffffffffffffffffffffffffffffffffffffff16021790555050506008600081548092919061093c90612a19565b9190505550505050565b600073ffffffffffffffffffffffffffffffffffffffff168273ffffffffffffffffffffffffffffffffffffffff16036109b85760006040517f64a0ae920000000000000000000000000000000000000000000000000000000081526004016109af9190611fed565b60405180910390fd5b60006109cc83836109c761102d565b611047565b90508373ffffffffffffffffffffffffffffffffffffffff168173ffffffffffffffffffffffffffffffffffffffff1614610a42578382826040517f64283d7b000000000000000000000000000000000000000000000000000000008152600401610a3993929190612a61565b60405180910390fd5b50505050565b610a6383838360405180602001604052806000815250610c5b565b505050565b610a7481600754611261565b60076000815480929190610a8790612a19565b919050555050565b6000610a9a82610f68565b9050919050565b60008073ffffffffffffffffffffffffffffffffffffffff168273ffffffffffffffffffffffffffffffffffffffff1603610b145760006040517f89c62b64000000000000000000000000000000000000000000000000000000008152600401610b0b9190611fed565b60405180910390fd5b600360008373ffffffffffffffffffffffffffffffffffffffff1673ffffffffffffffffffffffffffffffffffffffff168152602001908152602001600020549050919050565b610b6361127f565b610b6d6000611306565b565b60075481565b6000600660009054906101000a900473ffffffffffffffffffffffffffffffffffffffff16905090565b600080610bab83610aa1565b119050919050565b606060018054610bc2906126a9565b80601f0160208091040260200160405190810160405280929190818152602001828054610bee906126a9565b8015610c3b5780601f10610c1057610100808354040283529160200191610c3b565b820191906000526020600020905b815481529060010190602001808311610c1e57829003601f168201915b5050505050905090565b610c57610c5061102d565b83836113cc565b5050565b610c66848484610946565b610c7a610c7161102d565b8585858561153b565b50505050565b6060610c8b82610f68565b506000610c966116ec565b90506000815111610cb65760405180602001604052806000815250610ce1565b80610cc084611703565b604051602001610cd1929190612ad4565b6040516020818303038152906040525b915050919050565b60096020528160005260406000208181548110610d0557600080fd5b906000526020600020906004020160009150915050806000015490806001018054610d2f906126a9565b80601f0160208091040260200160405190810160405280929190818152602001828054610d5b906126a9565b8015610da85780601f10610d7d57610100808354040283529160200191610da8565b820191906000526020600020905b815481529060010190602001808311610d8b57829003601f168201915b5050505050908060020154908060030160009054906101000a900473ffffffffffffffffffffffffffffffffffffffff16905084565b6000600560008473ffffffffffffffffffffffffffffffffffffffff1673ffffffffffffffffffffffffffffffffffffffff16815260200190815260200160002060008373ffffffffffffffffffffffffffffffffffffffff1673ffffffffffffffffffffffffffffffffffffffff16815260200190815260200160002060009054906101000a900460ff16905092915050565b610e7a61127f565b600073ffffffffffffffffffffffffffffffffffffffff168173ffffffffffffffffffffffffffffffffffffffff1603610eec5760006040517f1e4fbdf7000000000000000000000000000000000000000000000000000000008152600401610ee39190611fed565b60405180910390fd5b610ef581611306565b50565b60085481565b60007f01ffc9a7000000000000000000000000000000000000000000000000000000007bffffffffffffffffffffffffffffffffffffffffffffffffffffffff1916827bffffffffffffffffffffffffffffffffffffffffffffffffffffffff1916149050919050565b600080610f74836117d1565b9050600073ffffffffffffffffffffffffffffffffffffffff168173ffffffffffffffffffffffffffffffffffffffff1603610fe757826040517f7e273289000000000000000000000000000000000000000000000000000000008152600401610fde9190612443565b60405180910390fd5b80915050919050565b60006004600083815260200190815260200160002060009054906101000a900473ffffffffffffffffffffffffffffffffffffffff169050919050565b600033905090565b611042838383600161180e565b505050565b600080611053846117d1565b9050600073ffffffffffffffffffffffffffffffffffffffff168373ffffffffffffffffffffffffffffffffffffffff1614611095576110948184866119d3565b5b600073ffffffffffffffffffffffffffffffffffffffff168173ffffffffffffffffffffffffffffffffffffffff1614611126576110d760008560008061180e565b6001600360008373ffffffffffffffffffffffffffffffffffffffff1673ffffffffffffffffffffffffffffffffffffffff168152602001908152602001600020600082825403925050819055505b600073ffffffffffffffffffffffffffffffffffffffff168573ffffffffffffffffffffffffffffffffffffffff16146111a9576001600360008773ffffffffffffffffffffffffffffffffffffffff1673ffffffffffffffffffffffffffffffffffffffff168152602001908152602001600020600082825401925050819055505b846002600086815260200190815260200160002060006101000a81548173ffffffffffffffffffffffffffffffffffffffff021916908373ffffffffffffffffffffffffffffffffffffffff160217905550838573ffffffffffffffffffffffffffffffffffffffff168273ffffffffffffffffffffffffffffffffffffffff167fddf252ad1be2c89b69c2b068fc378daa952ba7f163c4a11628f55a4df523b3ef60405160405180910390a4809150509392505050565b61127b828260405180602001604052806000815250611a97565b5050565b61128761102d565b73ffffffffffffffffffffffffffffffffffffffff166112a5610b75565b73ffffffffffffffffffffffffffffffffffffffff1614611304576112c861102d565b6040517f118cdaa70000000000000000000000000000000000000000000000000000000081526004016112fb9190611fed565b60405180910390fd5b565b6000600660009054906101000a900473ffffffffffffffffffffffffffffffffffffffff16905081600660006101000a81548173ffffffffffffffffffffffffffffffffffffffff021916908373ffffffffffffffffffffffffffffffffffffffff1602179055508173ffffffffffffffffffffffffffffffffffffffff168173ffffffffffffffffffffffffffffffffffffffff167f8be0079c531659141344cd1fd0a4f28419497f9722a3daafe3b4186f6b6457e060405160405180910390a35050565b600073ffffffffffffffffffffffffffffffffffffffff168273ffffffffffffffffffffffffffffffffffffffff160361143d57816040517f5b08ba180000000000000000000000000000000000000000000000000000000081526004016114349190611fed565b60405180910390fd5b80600560008573ffffffffffffffffffffffffffffffffffffffff1673ffffffffffffffffffffffffffffffffffffffff16815260200190815260200160002060008473ffffffffffffffffffffffffffffffffffffffff1673ffffffffffffffffffffffffffffffffffffffff16815260200190815260200160002060006101000a81548160ff0219169083151502179055508173ffffffffffffffffffffffffffffffffffffffff168373ffffffffffffffffffffffffffffffffffffffff167f17307eab39ab6107e8899845ad3d59bd9653f200f220920489ca2b5937696c318360405161152e9190611e7c565b60405180910390a3505050565b60008373ffffffffffffffffffffffffffffffffffffffff163b11156116e5578273ffffffffffffffffffffffffffffffffffffffff1663150b7a02868685856040518563ffffffff1660e01b815260040161159a9493929190612b4d565b6020604051808303816000875af19250505080156115d657506040513d601f19601f820116820180604052508101906115d39190612bae565b60015b61165a573d8060008114611606576040519150601f19603f3d011682016040523d82523d6000602084013e61160b565b606091505b50600081510361165257836040517f64a0ae920000000000000000000000000000000000000000000000000000000081526004016116499190611fed565b60405180910390fd5b805181602001fd5b63150b7a0260e01b7bffffffffffffffffffffffffffffffffffffffffffffffffffffffff1916817bffffffffffffffffffffffffffffffffffffffffffffffffffffffff1916146116e357836040517f64a0ae920000000000000000000000000000000000000000000000000000000081526004016116da9190611fed565b60405180910390fd5b505b5050505050565b606060405180602001604052806000815250905090565b60606000600161171284611abb565b01905060008167ffffffffffffffff8111156117315761173061225a565b5b6040519080825280601f01601f1916602001820160405280156117635781602001600182028036833780820191505090505b509050600082602001820190505b6001156117c6578080600190039150507f3031323334353637383961626364656600000000000000000000000000000000600a86061a8153600a85816117ba576117b9612bdb565b5b04945060008503611771575b819350505050919050565b60006002600083815260200190815260200160002060009054906101000a900473ffffffffffffffffffffffffffffffffffffffff169050919050565b80806118475750600073ffffffffffffffffffffffffffffffffffffffff168273ffffffffffffffffffffffffffffffffffffffff1614155b1561197b57600061185784610f68565b9050600073ffffffffffffffffffffffffffffffffffffffff168373ffffffffffffffffffffffffffffffffffffffff16141580156118c257508273ffffffffffffffffffffffffffffffffffffffff168173ffffffffffffffffffffffffffffffffffffffff1614155b80156118d557506118d38184610dde565b155b1561191757826040517fa9fbf51f00000000000000000000000000000000000000000000000000000000815260040161190e9190611fed565b60405180910390fd5b811561197957838573ffffffffffffffffffffffffffffffffffffffff168273ffffffffffffffffffffffffffffffffffffffff167f8c5be1e5ebec7d5bd14f71427d1e84f3dd0314c0f7b2291e5b200ac8c7c3b92560405160405180910390a45b505b836004600085815260200190815260200160002060006101000a81548173ffffffffffffffffffffffffffffffffffffffff021916908373ffffffffffffffffffffffffffffffffffffffff16021790555050505050565b6119de838383611c0e565b611a9257600073ffffffffffffffffffffffffffffffffffffffff168373ffffffffffffffffffffffffffffffffffffffff1603611a5357806040517f7e273289000000000000000000000000000000000000000000000000000000008152600401611a4a9190612443565b60405180910390fd5b81816040517f177e802f000000000000000000000000000000000000000000000000000000008152600401611a89929190612c0a565b60405180910390fd5b505050565b611aa18383611ccf565b611ab6611aac61102d565b600085858561153b565b505050565b600080600090507a184f03e93ff9f4daa797ed6e38ed64bf6a1f0100000000000000008310611b19577a184f03e93ff9f4daa797ed6e38ed64bf6a1f0100000000000000008381611b0f57611b0e612bdb565b5b0492506040810190505b6d04ee2d6d415b85acef81000000008310611b56576d04ee2d6d415b85acef81000000008381611b4c57611b4b612bdb565b5b0492506020810190505b662386f26fc100008310611b8557662386f26fc100008381611b7b57611b7a612bdb565b5b0492506010810190505b6305f5e1008310611bae576305f5e1008381611ba457611ba3612bdb565b5b0492506008810190505b6127108310611bd3576127108381611bc957611bc8612bdb565b5b0492506004810190505b60648310611bf65760648381611bec57611beb612bdb565b5b0492506002810190505b600a8310611c05576001810190505b80915050919050565b60008073ffffffffffffffffffffffffffffffffffffffff168373ffffffffffffffffffffffffffffffffffffffff1614158015611cc657508273ffffffffffffffffffffffffffffffffffffffff168473ffffffffffffffffffffffffffffffffffffffff161480611c875750611c868484610dde565b5b80611cc557508273ffffffffffffffffffffffffffffffffffffffff16611cad83610ff0565b73ffffffffffffffffffffffffffffffffffffffff16145b5b90509392505050565b600073ffffffffffffffffffffffffffffffffffffffff168273ffffffffffffffffffffffffffffffffffffffff1603611d415760006040517f64a0ae92000000000000000000000000000000000000000000000000000000008152600401611d389190611fed565b60405180910390fd5b6000611d4f83836000611047565b9050600073ffffffffffffffffffffffffffffffffffffffff168173ffffffffffffffffffffffffffffffffffffffff1614611dc35760006040517f73c6ac6e000000000000000000000000000000000000000000000000000000008152600401611dba9190611fed565b60405180910390fd5b505050565b6000604051905090565b600080fd5b600080fd5b60007fffffffff0000000000000000000000000000000000000000000000000000000082169050919050565b611e1181611ddc565b8114611e1c57600080fd5b50565b600081359050611e2e81611e08565b92915050565b600060208284031215611e4a57611e49611dd2565b5b6000611e5884828501611e1f565b91505092915050565b60008115159050919050565b611e7681611e61565b82525050565b6000602082019050611e916000830184611e6d565b92915050565b600081519050919050565b600082825260208201905092915050565b60005b83811015611ed1578082015181840152602081019050611eb6565b60008484015250505050565b6000601f19601f8301169050919050565b6000611ef982611e97565b611f038185611ea2565b9350611f13818560208601611eb3565b611f1c81611edd565b840191505092915050565b60006020820190508181036000830152611f418184611eee565b905092915050565b6000819050919050565b611f5c81611f49565b8114611f6757600080fd5b50565b600081359050611f7981611f53565b92915050565b600060208284031215611f9557611f94611dd2565b5b6000611fa384828501611f6a565b91505092915050565b600073ffffffffffffffffffffffffffffffffffffffff82169050919050565b6000611fd782611fac565b9050919050565b611fe781611fcc565b82525050565b60006020820190506120026000830184611fde565b92915050565b61201181611fcc565b811461201c57600080fd5b50565b60008135905061202e81612008565b92915050565b6000806040838503121561204b5761204a611dd2565b5b60006120598582860161201f565b925050602061206a85828601611f6a565b9150509250929050565b60006020828403121561208a57612089611dd2565b5b60006120988482850161201f565b91505092915050565b600081519050919050565b600082825260208201905092915050565b6000819050602082019050919050565b6120d681611f49565b82525050565b600082825260208201905092915050565b60006120f882611e97565b61210281856120dc565b9350612112818560208601611eb3565b61211b81611edd565b840191505092915050565b61212f81611fcc565b82525050565b600060808301600083015161214d60008601826120cd565b506020830151848203602086015261216582826120ed565b915050604083015161217a60408601826120cd565b50606083015161218d6060860182612126565b508091505092915050565b60006121a48383612135565b905092915050565b6000602082019050919050565b60006121c4826120a1565b6121ce81856120ac565b9350836020820285016121e0856120bd565b8060005b8581101561221c57848403895281516121fd8582612198565b9450612208836121ac565b925060208a019950506001810190506121e4565b50829750879550505050505092915050565b6000602082019050818103600083015261224881846121b9565b905092915050565b600080fd5b600080fd5b7f4e487b7100000000000000000000000000000000000000000000000000000000600052604160045260246000fd5b61229282611edd565b810181811067ffffffffffffffff821117156122b1576122b061225a565b5b80604052505050565b60006122c4611dc8565b90506122d08282612289565b919050565b600067ffffffffffffffff8211156122f0576122ef61225a565b5b6122f982611edd565b9050602081019050919050565b82818337600083830152505050565b6000612328612323846122d5565b6122ba565b90508281526020810184848401111561234457612343612255565b5b61234f848285612306565b509392505050565b600082601f83011261236c5761236b612250565b5b813561237c848260208601612315565b91505092915050565b6000806040838503121561239c5761239b611dd2565b5b600083013567ffffffffffffffff8111156123ba576123b9611dd7565b5b6123c685828601612357565b92505060206123d785828601611f6a565b9150509250929050565b6000806000606084860312156123fa576123f9611dd2565b5b60006124088682870161201f565b93505060206124198682870161201f565b925050604061242a86828701611f6a565b9150509250925092565b61243d81611f49565b82525050565b60006020820190506124586000830184612434565b92915050565b61246781611e61565b811461247257600080fd5b50565b6000813590506124848161245e565b92915050565b600080604083850312156124a1576124a0611dd2565b5b60006124af8582860161201f565b92505060206124c085828601612475565b9150509250929050565b600067ffffffffffffffff8211156124e5576124e461225a565b5b6124ee82611edd565b9050602081019050919050565b600061250e612509846124ca565b6122ba565b90508281526020810184848401111561252a57612529612255565b5b612535848285612306565b509392505050565b600082601f83011261255257612551612250565b5b81356125628482602086016124fb565b91505092915050565b6000806000806080858703121561258557612584611dd2565b5b60006125938782880161201f565b94505060206125a48782880161201f565b93505060406125b587828801611f6a565b925050606085013567ffffffffffffffff8111156125d6576125d5611dd7565b5b6125e28782880161253d565b91505092959194509250565b60006080820190506126036000830187612434565b81810360208301526126158186611eee565b90506126246040830185612434565b6126316060830184611fde565b95945050505050565b6000806040838503121561265157612650611dd2565b5b600061265f8582860161201f565b92505060206126708582860161201f565b9150509250929050565b7f4e487b7100000000000000000000000000000000000000000000000000000000600052602260045260246000fd5b600060028204905060018216806126c157607f821691505b6020821081036126d4576126d361267a565b5b50919050565b7f596f75206d757374206f776e20616e20616363657373204e465420746f20626f60008201527f6f6b000000000000000000000000000000000000000000000000000000000000602082015250565b6000612736602283611ea2565b9150612741826126da565b604082019050919050565b6000602082019050818103600083015261276581612729565b9050919050565b60008190508160005260206000209050919050565b60006020601f8301049050919050565b600082821b905092915050565b6000600883026127ce7fffffffffffffffffffffffffffffffffffffffffffffffffffffffffffffffff82612791565b6127d88683612791565b95508019841693508086168417925050509392505050565b6000819050919050565b600061281561281061280b84611f49565b6127f0565b611f49565b9050919050565b6000819050919050565b61282f836127fa565b61284361283b8261281c565b84845461279e565b825550505050565b600090565b61285861284b565b612863818484612826565b505050565b5b818110156128875761287c600082612850565b600181019050612869565b5050565b601f8211156128cc5761289d8161276c565b6128a684612781565b810160208510156128b5578190505b6128c96128c185612781565b830182612868565b50505b505050565b600082821c905092915050565b60006128ef600019846008026128d1565b1980831691505092915050565b600061290883836128de565b9150826002028217905092915050565b61292182611e97565b67ffffffffffffffff81111561293a5761293961225a565b5b61294482546126a9565b61294f82828561288b565b600060209050601f8311600181146129825760008415612970578287015190505b61297a85826128fc565b8655506129e2565b601f1984166129908661276c565b60005b828110156129b857848901518255600182019150602085019450602081019050612993565b868310156129d557848901516129d1601f8916826128de565b8355505b6001600288020188555050505b505050505050565b7f4e487b7100000000000000000000000000000000000000000000000000000000600052601160045260246000fd5b6000612a2482611f49565b91507fffffffffffffffffffffffffffffffffffffffffffffffffffffffffffffffff8203612a5657612a556129ea565b5b600182019050919050565b6000606082019050612a766000830186611fde565b612a836020830185612434565b612a906040830184611fde565b949350505050565b600081905092915050565b6000612aae82611e97565b612ab88185612a98565b9350612ac8818560208601611eb3565b80840191505092915050565b6000612ae08285612aa3565b9150612aec8284612aa3565b91508190509392505050565b600081519050919050565b600082825260208201905092915050565b6000612b1f82612af8565b612b298185612b03565b9350612b39818560208601611eb3565b612b4281611edd565b840191505092915050565b6000608082019050612b626000830187611fde565b612b6f6020830186611fde565b612b7c6040830185612434565b8181036060830152612b8e8184612b14565b905095945050505050565b600081519050612ba881611e08565b92915050565b600060208284031215612bc457612bc3611dd2565b5b6000612bd284828501612b99565b91505092915050565b7f4e487b7100000000000000000000000000000000000000000000000000000000600052601260045260246000fd5b6000604082019050612c1f6000830185611fde565b612c2c6020830184612434565b939250505056fea2646970667358221220fe8e85709dbe7a9ea0be47a2a7004586621612abfb100b2ab305e1f2fff1541964736f6c634300081c0033",
  "linkReferences": {},
  "deployedLinkReferences": {}
}